{
  "_format": "hh-sol-artifact-1",
  "contractName": "WordMastermind",
  "sourceName": "contracts/WordMastermind.sol",
  "abi": [
    {
      "inputs": [
        {
          "internalType": "contract IVerifier",
          "name": "_verifier",
          "type": "address"
        },
        {
          "internalType": "contract IHasher",
          "name": "_hasher",
          "type": "address"
        }
      ],
      "stateMutability": "nonpayable",
      "type": "constructor"
    },
    {
      "anonymous": false,
      "inputs": [
        {
          "indexed": true,
          "internalType": "address",
          "name": "player",
          "type": "address"
        },
        {
          "indexed": false,
          "internalType": "uint256",
          "name": "solutionHash",
          "type": "uint256"
        }
      ],
      "name": "CommitSolutionHash",
      "type": "event"
    },
    {
      "anonymous": false,
      "inputs": [
        {
          "indexed": true,
          "internalType": "enum WordMastermind.Result",
          "name": "result",
          "type": "uint8"
        }
      ],
      "name": "GameFinish",
      "type": "event"
    },
    {
      "anonymous": false,
      "inputs": [],
      "name": "Initialize",
      "type": "event"
    },
    {
      "anonymous": false,
      "inputs": [
        {
          "indexed": true,
          "internalType": "address",
          "name": "player",
          "type": "address"
        }
      ],
      "name": "Register",
      "type": "event"
    },
    {
      "anonymous": false,
      "inputs": [
        {
          "indexed": true,
          "internalType": "address",
          "name": "player",
          "type": "address"
        },
        {
          "indexed": false,
          "internalType": "uint8",
          "name": "a",
          "type": "uint8"
        },
        {
          "indexed": false,
          "internalType": "uint8",
          "name": "b",
          "type": "uint8"
        },
        {
          "indexed": false,
          "internalType": "uint8",
          "name": "c",
          "type": "uint8"
        },
        {
          "indexed": false,
          "internalType": "uint8",
          "name": "d",
          "type": "uint8"
        }
      ],
      "name": "Reveal",
      "type": "event"
    },
    {
      "anonymous": false,
      "inputs": [
        {
          "indexed": false,
          "internalType": "uint8",
          "name": "round",
          "type": "uint8"
        }
      ],
      "name": "RoundChange",
      "type": "event"
    },
    {
      "anonymous": false,
      "inputs": [
        {
          "indexed": false,
          "internalType": "enum WordMastermind.Stages",
          "name": "stage",
          "type": "uint8"
        }
      ],
      "name": "StageChange",
      "type": "event"
    },
    {
      "anonymous": false,
      "inputs": [
        {
          "indexed": true,
          "internalType": "address",
          "name": "player",
          "type": "address"
        },
        {
          "indexed": false,
          "internalType": "uint8",
          "name": "currentRound",
          "type": "uint8"
        },
        {
          "indexed": false,
          "internalType": "uint8",
          "name": "bull",
          "type": "uint8"
        },
        {
          "indexed": false,
          "internalType": "uint8",
          "name": "cow",
          "type": "uint8"
        }
      ],
      "name": "SubmitBC",
      "type": "event"
    },
    {
      "anonymous": false,
      "inputs": [
        {
          "indexed": true,
          "internalType": "address",
          "name": "player",
          "type": "address"
        },
        {
          "indexed": false,
          "internalType": "uint8",
          "name": "currentRound",
          "type": "uint8"
        },
        {
          "indexed": false,
          "internalType": "uint8",
          "name": "a",
          "type": "uint8"
        },
        {
          "indexed": false,
          "internalType": "uint8",
          "name": "b",
          "type": "uint8"
        },
        {
          "indexed": false,
          "internalType": "uint8",
          "name": "c",
          "type": "uint8"
        },
        {
          "indexed": false,
          "internalType": "uint8",
          "name": "d",
          "type": "uint8"
        }
      ],
      "name": "SubmitGuess",
      "type": "event"
    },
    {
      "inputs": [],
      "name": "MAX_ROUND",
      "outputs": [
        {
          "internalType": "uint8",
          "name": "",
          "type": "uint8"
        }
      ],
      "stateMutability": "view",
      "type": "function"
    },
    {
      "inputs": [
        {
          "internalType": "uint256",
          "name": "solutionHash",
          "type": "uint256"
        }
      ],
      "name": "commitSolutionHash",
      "outputs": [],
      "stateMutability": "nonpayable",
      "type": "function"
    },
    {
      "inputs": [],
      "name": "currentRound",
      "outputs": [
        {
          "internalType": "uint8",
          "name": "",
          "type": "uint8"
        }
      ],
      "stateMutability": "view",
      "type": "function"
    },
    {
      "inputs": [],
      "name": "getSubmittedBC",
      "outputs": [
        {
          "components": [
            {
              "internalType": "uint8",
              "name": "bull",
              "type": "uint8"
            },
            {
              "internalType": "uint8",
              "name": "cow",
              "type": "uint8"
            },
            {
              "internalType": "bool",
              "name": "submitted",
              "type": "bool"
            }
          ],
          "internalType": "struct WordMastermind.BC[]",
          "name": "",
          "type": "tuple[]"
        }
      ],
      "stateMutability": "view",
      "type": "function"
    },
    {
      "inputs": [],
      "name": "getSubmittedGuess",
      "outputs": [
        {
          "components": [
            {
              "internalType": "uint8",
              "name": "one",
              "type": "uint8"
            },
            {
              "internalType": "uint8",
              "name": "two",
              "type": "uint8"
            },
            {
              "internalType": "uint8",
              "name": "three",
              "type": "uint8"
            },
            {
              "internalType": "uint8",
              "name": "four",
              "type": "uint8"
            },
            {
              "internalType": "bool",
              "name": "submitted",
              "type": "bool"
            }
          ],
          "internalType": "struct WordMastermind.Guess[]",
          "name": "",
          "type": "tuple[]"
        }
      ],
      "stateMutability": "view",
      "type": "function"
    },
    {
      "inputs": [],
      "name": "getplayer",
      "outputs": [
        {
          "internalType": "address",
          "name": "",
          "type": "address"
        }
      ],
      "stateMutability": "view",
      "type": "function"
    },
    {
      "inputs": [],
      "name": "hasher",
      "outputs": [
        {
          "internalType": "contract IHasher",
          "name": "",
          "type": "address"
        }
      ],
      "stateMutability": "view",
      "type": "function"
    },
    {
      "inputs": [],
      "name": "initialize",
      "outputs": [],
      "stateMutability": "nonpayable",
      "type": "function"
    },
    {
      "inputs": [],
      "name": "player",
      "outputs": [
        {
          "internalType": "address",
          "name": "",
          "type": "address"
        }
      ],
      "stateMutability": "view",
      "type": "function"
    },
    {
      "inputs": [],
      "name": "register",
      "outputs": [],
      "stateMutability": "nonpayable",
      "type": "function"
    },
    {
      "inputs": [],
      "name": "result",
      "outputs": [
        {
          "internalType": "enum WordMastermind.Result",
          "name": "",
          "type": "uint8"
        }
      ],
      "stateMutability": "view",
      "type": "function"
    },
    {
      "inputs": [
        {
          "internalType": "uint256",
          "name": "salt",
          "type": "uint256"
        },
        {
          "internalType": "uint8",
          "name": "a",
          "type": "uint8"
        },
        {
          "internalType": "uint8",
          "name": "b",
          "type": "uint8"
        },
        {
          "internalType": "uint8",
          "name": "c",
          "type": "uint8"
        },
        {
          "internalType": "uint8",
          "name": "d",
          "type": "uint8"
        }
      ],
      "name": "reveal",
      "outputs": [],
      "stateMutability": "nonpayable",
      "type": "function"
    },
    {
      "inputs": [],
      "name": "stage",
      "outputs": [
        {
          "internalType": "enum WordMastermind.Stages",
          "name": "",
          "type": "uint8"
        }
      ],
      "stateMutability": "view",
      "type": "function"
    },
    {
      "inputs": [
        {
          "internalType": "uint256[2]",
          "name": "a",
          "type": "uint256[2]"
        },
        {
          "internalType": "uint256[2][2]",
          "name": "b",
          "type": "uint256[2][2]"
        },
        {
          "internalType": "uint256[2]",
          "name": "c",
          "type": "uint256[2]"
        },
        {
          "internalType": "uint256[8]",
          "name": "input",
          "type": "uint256[8]"
        }
      ],
      "name": "submitBcProof",
      "outputs": [],
      "stateMutability": "nonpayable",
      "type": "function"
    },
    {
      "inputs": [
        {
          "internalType": "uint8",
          "name": "guess1",
          "type": "uint8"
        },
        {
          "internalType": "uint8",
          "name": "guess2",
          "type": "uint8"
        },
        {
          "internalType": "uint8",
          "name": "guess3",
          "type": "uint8"
        },
        {
          "internalType": "uint8",
          "name": "guess4",
          "type": "uint8"
        }
      ],
      "name": "submitGuess",
      "outputs": [],
      "stateMutability": "nonpayable",
      "type": "function"
    },
    {
      "inputs": [
        {
          "internalType": "uint256",
          "name": "",
          "type": "uint256"
        },
        {
          "internalType": "address",
          "name": "",
          "type": "address"
        }
      ],
      "name": "submittedBC",
      "outputs": [
        {
          "internalType": "uint8",
          "name": "bull",
          "type": "uint8"
        },
        {
          "internalType": "uint8",
          "name": "cow",
          "type": "uint8"
        },
        {
          "internalType": "bool",
          "name": "submitted",
          "type": "bool"
        }
      ],
      "stateMutability": "view",
      "type": "function"
    },
    {
      "inputs": [
        {
          "internalType": "uint256",
          "name": "",
          "type": "uint256"
        },
        {
          "internalType": "address",
          "name": "",
          "type": "address"
        }
      ],
      "name": "submittedGuess",
      "outputs": [
        {
          "internalType": "uint8",
          "name": "one",
          "type": "uint8"
        },
        {
          "internalType": "uint8",
          "name": "two",
          "type": "uint8"
        },
        {
          "internalType": "uint8",
          "name": "three",
          "type": "uint8"
        },
        {
          "internalType": "uint8",
          "name": "four",
          "type": "uint8"
        },
        {
          "internalType": "bool",
          "name": "submitted",
          "type": "bool"
        }
      ],
      "stateMutability": "view",
      "type": "function"
    },
    {
      "inputs": [],
      "name": "verifier",
      "outputs": [
        {
          "internalType": "contract IVerifier",
          "name": "",
          "type": "address"
        }
      ],
      "stateMutability": "view",
      "type": "function"
    },
    {
      "inputs": [
        {
          "internalType": "uint256[2]",
          "name": "_pA",
          "type": "uint256[2]"
        },
        {
          "internalType": "uint256[2][2]",
          "name": "_pB",
          "type": "uint256[2][2]"
        },
        {
          "internalType": "uint256[2]",
          "name": "_pC",
          "type": "uint256[2]"
        },
        {
          "internalType": "uint256[8]",
          "name": "_pubSignals",
          "type": "uint256[8]"
        }
      ],
      "name": "verifyProof",
      "outputs": [
        {
          "internalType": "bool",
          "name": "",
          "type": "bool"
        }
      ],
      "stateMutability": "view",
      "type": "function"
    }
  ],
  "bytecode": "0x608060405260016000806101000a81548160ff021916908360ff1602179055506000600360156101000a81548160ff021916908360038111156200006c577f4e487b7100000000000000000000000000000000000000000000000000000000600052602160045260246000fd5b02179055503480156200007e57600080fd5b5060405162003b8838038062003b888339818101604052810190620000a491906200015c565b81600360006101000a81548173ffffffffffffffffffffffffffffffffffffffff021916908373ffffffffffffffffffffffffffffffffffffffff16021790555080600260006101000a81548173ffffffffffffffffffffffffffffffffffffffff021916908373ffffffffffffffffffffffffffffffffffffffff16021790555050506200022d565b6000815190506200013f81620001f9565b92915050565b600081519050620001568162000213565b92915050565b600080604083850312156200017057600080fd5b6000620001808582860162000145565b925050602062000193858286016200012e565b9150509250929050565b6000620001aa82620001d9565b9050919050565b6000620001be826200019d565b9050919050565b6000620001d2826200019d565b9050919050565b600073ffffffffffffffffffffffffffffffffffffffff82169050919050565b6200020481620001b1565b81146200021057600080fd5b50565b6200021e81620001c5565b81146200022a57600080fd5b50565b61394b806200023d6000396000f3fe608060405234801561001057600080fd5b50600436106101215760003560e01c8063a695c3ae116100ad578063ce9af86311610071578063ce9af863146102c2578063d1627806146102f6578063d1b8fe7814610314578063e183907814610330578063ed33639f1461034e57610121565b8063a695c3ae1461021c578063b4ac62c514610238578063b77430d514610256578063c040e6b814610274578063c9219a7a1461029257610121565b806365372147116100f457806365372147146101885780638129fc1c146101a657806389de6db5146101b05780638a19c8bc146101e257806395f2d1f41461020057610121565b80630f4d6aa6146101265780631aa3a008146101425780632b7ac3f31461014c57806348db5f891461016a575b600080fd5b610140600480360381019061013b9190612931565b61036c565b005b61014a61096c565b005b610154610bd0565b604051610161919061310e565b60405180910390f35b610172610bf6565b60405161017f9190613017565b60405180910390f35b610190610c1c565b60405161019d9190613129565b60405180910390f35b6101ae610c2f565b005b6101ca60048036038101906101c59190612a11565b610cc9565b6040516101d993929190613255565b60405180910390f35b6101ea610d2a565b6040516101f7919061323a565b60405180910390f35b61021a60048036038101906102159190612ac4565b610d3b565b005b610236600480360381019061023191906129bf565b6110fb565b005b610240611325565b60405161024d919061323a565b60405180910390f35b61025e61132a565b60405161026b9190613054565b60405180910390f35b61027c611571565b6040516102899190613144565b60405180910390f35b6102ac60048036038101906102a791906128cc565b611584565b6040516102b991906130d8565b60405180910390f35b6102dc60048036038101906102d79190612a11565b611c6a565b6040516102ed959493929190613308565b60405180910390f35b6102fe611cf1565b60405161030b9190613032565b60405180910390f35b61032e60048036038101906103299190612a4d565b611efe565b005b610338612271565b6040516103459190613017565b60405180910390f35b61035661229a565b60405161036391906130f3565b60405180910390f35b60028060038111156103a7577f4e487b7100000000000000000000000000000000000000000000000000000000600052602160045260246000fd5b600360159054906101000a900460ff1660038111156103ef577f4e487b7100000000000000000000000000000000000000000000000000000000600052602160045260246000fd5b1461042f576040517f08c379a0000000000000000000000000000000000000000000000000000000008152600401610426906131bf565b60405180910390fd5b600360009054906101000a900473ffffffffffffffffffffffffffffffffffffffff1673ffffffffffffffffffffffffffffffffffffffff1663c9219a7a868686866040518563ffffffff1660e01b81526004016104909493929190613076565b60206040518083038186803b1580156104a857600080fd5b505afa1580156104bc573d6000803e3d6000fd5b505050506040513d601f19601f820116820180604052508101906104e09190612996565b61051f576040517f08c379a0000000000000000000000000000000000000000000000000000000008152600401610516906131ff565b60405180910390fd5b60008260056008811061055b577f4e487b7100000000000000000000000000000000000000000000000000000000600052603260045260246000fd5b6020020151905060008360066008811061059e577f4e487b7100000000000000000000000000000000000000000000000000000000600052603260045260246000fd5b60200201519050600060405180606001604052808460ff1681526020018360ff16815260200160011515815250905080600e600160008054906101000a900460ff166105ea9190613587565b60ff16600a8110610624577f4e487b7100000000000000000000000000000000000000000000000000000000600052603260045260246000fd5b0160003373ffffffffffffffffffffffffffffffffffffffff1673ffffffffffffffffffffffffffffffffffffffff16815260200190815260200160002060008201518160000160006101000a81548160ff021916908360ff16021790555060208201518160000160016101000a81548160ff021916908360ff16021790555060408201518160000160026101000a81548160ff02191690831515021790555090505060048360ff1614156107df576000600181111561070d577f4e487b7100000000000000000000000000000000000000000000000000000000600052602160045260246000fd5b7f8f90ac036816fb168152d6673fe0bd5779b0dfbecd74d08edd386abdf52f8f2b60405160405180910390a26000600360146101000a81548160ff02191690836001811115610785577f4e487b7100000000000000000000000000000000000000000000000000000000600052602160045260246000fd5b021790555060038060156101000a81548160ff021916908360038111156107d5577f4e487b7100000000000000000000000000000000000000000000000000000000600052602160045260246000fd5b0217905550610903565b600a60ff1660008054906101000a900460ff1660ff16141561090257600180811115610834577f4e487b7100000000000000000000000000000000000000000000000000000000600052602160045260246000fd5b7f8f90ac036816fb168152d6673fe0bd5779b0dfbecd74d08edd386abdf52f8f2b60405160405180910390a26001600360146101000a81548160ff021916908360018111156108ac577f4e487b7100000000000000000000000000000000000000000000000000000000600052602160045260246000fd5b021790555060038060156101000a81548160ff021916908360038111156108fc577f4e487b7100000000000000000000000000000000000000000000000000000000600052602160045260246000fd5b02179055505b5b3373ffffffffffffffffffffffffffffffffffffffff167f82c49f4c82c2e7dd8d5b67508a60b5a8025d5eb341ef95d8a62616a8e91f1d4660008054906101000a900460ff16858560405161095a9392919061328c565b60405180910390a25050505050505050565b60008060038111156109a7577f4e487b7100000000000000000000000000000000000000000000000000000000600052602160045260246000fd5b600360159054906101000a900460ff1660038111156109ef577f4e487b7100000000000000000000000000000000000000000000000000000000600052602160045260246000fd5b14610a2f576040517f08c379a0000000000000000000000000000000000000000000000000000000008152600401610a26906131bf565b60405180910390fd5b3373ffffffffffffffffffffffffffffffffffffffff16600060019054906101000a900473ffffffffffffffffffffffffffffffffffffffff1673ffffffffffffffffffffffffffffffffffffffff161415610ac0576040517f08c379a0000000000000000000000000000000000000000000000000000000008152600401610ab79061319f565b60405180910390fd5b33600060016101000a81548173ffffffffffffffffffffffffffffffffffffffff021916908373ffffffffffffffffffffffffffffffffffffffff1602179055506001600360156101000a81548160ff02191690836003811115610b4d577f4e487b7100000000000000000000000000000000000000000000000000000000600052602160045260246000fd5b02179055503373ffffffffffffffffffffffffffffffffffffffff167feeda149c76076b34d4b9d8896c2f7efc0d33d1c7b53ea3c5db490d64613f603a60405160405180910390a27fc2c79e90970e807cdffdfc0896c48a489b0f6882b90beb4c9d6386ddc0fc95cf6001604051610bc59190613144565b60405180910390a150565b600360009054906101000a900473ffffffffffffffffffffffffffffffffffffffff1681565b600060019054906101000a900473ffffffffffffffffffffffffffffffffffffffff1681565b600360149054906101000a900460ff1681565b600060019054906101000a900473ffffffffffffffffffffffffffffffffffffffff1673ffffffffffffffffffffffffffffffffffffffff163373ffffffffffffffffffffffffffffffffffffffff1614610cbf576040517f08c379a0000000000000000000000000000000000000000000000000000000008152600401610cb69061317f565b60405180910390fd5b610cc76122c0565b565b600e82600a8110610cd957600080fd5b01602052806000526040600020600091509150508060000160009054906101000a900460ff16908060000160019054906101000a900460ff16908060000160029054906101000a900460ff16905083565b60008054906101000a900460ff1681565b6002806003811115610d76577f4e487b7100000000000000000000000000000000000000000000000000000000600052602160045260246000fd5b600360159054906101000a900460ff166003811115610dbe577f4e487b7100000000000000000000000000000000000000000000000000000000600052602160045260246000fd5b14610dfe576040517f08c379a0000000000000000000000000000000000000000000000000000000008152600401610df5906131bf565b60405180910390fd5b6004600160008054906101000a900460ff16610e1a9190613587565b60ff16600a8110610e54577f4e487b7100000000000000000000000000000000000000000000000000000000600052603260045260246000fd5b0160003373ffffffffffffffffffffffffffffffffffffffff1673ffffffffffffffffffffffffffffffffffffffff16815260200190815260200160002060000160049054906101000a900460ff1615610ee3576040517f08c379a0000000000000000000000000000000000000000000000000000000008152600401610eda9061315f565b60405180910390fd5b60006040518060a001604052808760ff1681526020018660ff1681526020018560ff1681526020018460ff168152602001600115158152509050806004600160008054906101000a900460ff16610f3a9190613587565b60ff16600a8110610f74577f4e487b7100000000000000000000000000000000000000000000000000000000600052603260045260246000fd5b0160003373ffffffffffffffffffffffffffffffffffffffff1673ffffffffffffffffffffffffffffffffffffffff16815260200190815260200160002060008201518160000160006101000a81548160ff021916908360ff16021790555060208201518160000160016101000a81548160ff021916908360ff16021790555060408201518160000160026101000a81548160ff021916908360ff16021790555060608201518160000160036101000a81548160ff021916908360ff16021790555060808201518160000160046101000a81548160ff0219169083151502179055509050503373ffffffffffffffffffffffffffffffffffffffff167f03e5493440227aef0d1ce2c10c361defa2acc053c5881daa8b734853e216efd160008054906101000a900460ff16888888886040516110b495949392919061335b565b60405180910390a260008081819054906101000a900460ff16809291906110da906136d3565b91906101000a81548160ff021916908360ff16021790555050505050505050565b6001806003811115611136577f4e487b7100000000000000000000000000000000000000000000000000000000600052602160045260246000fd5b600360159054906101000a900460ff16600381111561117e577f4e487b7100000000000000000000000000000000000000000000000000000000600052602160045260246000fd5b146111be576040517f08c379a00000000000000000000000000000000000000000000000000000000081526004016111b5906131bf565b60405180910390fd5b81600160003373ffffffffffffffffffffffffffffffffffffffff1673ffffffffffffffffffffffffffffffffffffffff168152602001908152602001600020819055503373ffffffffffffffffffffffffffffffffffffffff167fc83617f8aff831bee99216a4007ee8436f8a36cc0b5bab8c816f52d0aef5e43883604051611248919061321f565b60405180910390a26000600160003373ffffffffffffffffffffffffffffffffffffffff1673ffffffffffffffffffffffffffffffffffffffff1681526020019081526020016000205414611321576002600360156101000a81548160ff021916908360038111156112e3577f4e487b7100000000000000000000000000000000000000000000000000000000600052602160045260246000fd5b02179055507fc2c79e90970e807cdffdfc0896c48a489b0f6882b90beb4c9d6386ddc0fc95cf60026040516113189190613144565b60405180910390a15b5050565b600a81565b606060008060009054906101000a900460ff1660ff1667ffffffffffffffff81111561137f577f4e487b7100000000000000000000000000000000000000000000000000000000600052604160045260246000fd5b6040519080825280602002602001820160405280156113b857816020015b6113a5612605565b81526020019060019003908161139d5790505b50905060005b60008054906101000a900460ff1660ff168160ff1610156115695760048160ff16600a8110611416577f4e487b7100000000000000000000000000000000000000000000000000000000600052603260045260246000fd5b0160008060019054906101000a900473ffffffffffffffffffffffffffffffffffffffff1673ffffffffffffffffffffffffffffffffffffffff1673ffffffffffffffffffffffffffffffffffffffff1681526020019081526020016000206040518060a00160405290816000820160009054906101000a900460ff1660ff1660ff1681526020016000820160019054906101000a900460ff1660ff1660ff1681526020016000820160029054906101000a900460ff1660ff1660ff1681526020016000820160039054906101000a900460ff1660ff1660ff1681526020016000820160049054906101000a900460ff161515151581525050828260ff168151811061154b577f4e487b7100000000000000000000000000000000000000000000000000000000600052603260045260246000fd5b60200260200101819052508080611561906136d3565b9150506113be565b508091505090565b600360159054906101000a900460ff1681565b6000611be0565b7f30644e72e131a029b85045b68181585d2833e84879b9709143e1f593f000000181106115bc576000805260206000f35b50565b600060405183815284602082015285604082015260408160608360076107d05a03fa9150816115f2576000805260206000f35b825160408201526020830151606082015260408360808360066107d05a03fa915081611622576000805260206000f35b505050505050565b600060808601600087017f0a69bbcf5ccb92c2348b5b5059f36fc5a8199b5ae403065a53a68ce84f38187581527f117bae367dea47403dfa2166da02d9441e29542cf084b58d090f8c00b103546760208201526116cd60008801357f11a4b0860d0dac358e9c55c6798445df64096f75b0d89ecd10886aebe142348e7f21d0af4e5b9e9214fc43f6c89f27ac3fd4b3e5a082c34bd66f069b6ee892d995846115bf565b61171d60208801357f05003e28c7603c3f2c0322669ec06d6d619539c6952507cd8a6757f04c9cbb4c7f1c11e52e84110ee48b3a563eeda0e3a9ffc1ef9e2f5802447f2eb980ee2601e6846115bf565b61176c60408801357f1efa32151e01a4ce041b964679a253f36efb876be851849ab47f5b4a470478747e9959f1957b23dbae5b81b9b0c3d7250ca5f95b4842c44f4684e4f211a9a440846115bf565b6117bc60608801357f0a2a14f376934dc4b531e5abee795d56699bc908c930c287e31130fba04f1f887f1f00baba8d94d212fa09f1c5547a4956cc9bf4793bb4646fe4936ad11785fb85846115bf565b61180c60808801357f05ce64b1e2756253bfe220fec466d43777666971bb5c535480b4623e634f43717f1e59ac84a6bbb3616a8eb2a25da3954b0c9986b00b8e5e01ae067dd25f402aca846115bf565b61185c60a08801357f248f682599cf36b3f316b41af7f307f5f342c6f9743aba4c2d3499bfbc0e3ae57f0ae007881d21fdc8bb9f64e89c1df0bceddd28fe76c870cf563046c7fc0df253846115bf565b6118ac60c08801357f19171c704dc40fdbb7dd8639bb80e25b3c993759718ecd561cee5bad5da07ef37f119cedf12d3ed0e3bf1cd4b7d394a78a50b8016ce942f7ef5dc9b9fbf946c8c0846115bf565b6118fc60e08801357f170c76dc1562ea5148cc53fed7d9a45d583316909898942e07b14f331cae34567f0d25e0c36b86276c2d8174b8399d713ca2eb46463e07f8d3edf3ec00a14bcbbe846115bf565b833582527f30644e72e131a029b85045b68181585d97816a916871ca8d3c208c16d87cfd4760208501357f30644e72e131a029b85045b68181585d97816a916871ca8d3c208c16d87cfd4703066020830152843560408301526020850135606083015260408501356080830152606085013560a08301527f2d4d9aa7e302d9df41749d5507949d05dbea33fbb16c643b22f599a2be6df2e260c08301527f14bedd503c37ceb061d8ec60209fe345ce89830a19230301f076caff004d192660e08301527f0967032fcbf776d1afc985f88877f182d38480a653f2decaa9794cbc3bf3060c6101008301527f0e187847ad4c798374d0d6732bf501847dd68bc0e071241e0213bc7fc13db7ab6101208301527f304cfbd1e08a704a99f5e847d93f8c3caafddec46b7a0d379da69a4d112346a76101408301527f1739c1b1a457a8c7313123d24d2f9192f896b7c63eea05a9d57f06547ad0cec8610160830152600088015161018083015260206000018801516101a08301527f198e9393920d483a7260bfb731fb5d25f1aa493335a9e71297e485b7aef312c26101c08301527f1800deef121f1e76426a00665e5c4479674322d4f75edadd46debd5cd992f6ed6101e08301527f090689d0585ff075ec9e99ad690c3395bc4b313370b38ef355acdadcd122975b6102008301527f12c85ea5db8c6deb4aab71808dcb408fe3d1e7690c43d37b4ce6cc0166fa7daa610220830152853561024083015260208601356102608301527f16360ec1ee8b9be84bfdc33903cf9120780042f6982a37acc87787ca954203a66102808301527f2be5cfd2f7166ed4a9eba9c4f3c4c84814c9eb2a5746fd74a51d89050570921e6102a08301527f0388fef421c0ce9e397cd76edf24df5f0b53cae6b9d53bf4b00b65ec83f233226102c08301527f07795c143ac1ba8d5c37284c1619c192095be0f31669dc2f801c72e5ebd140fc6102e08301526020826103008460086107d05a03fa82518116935050505095945050505050565b6040516103808101604052611bf8600084013561158b565b611c05602084013561158b565b611c12604084013561158b565b611c1f606084013561158b565b611c2c608084013561158b565b611c3960a084013561158b565b611c4660c084013561158b565b611c5360e084013561158b565b611c60818486888a61162a565b8060005260206000f35b600482600a8110611c7a57600080fd5b01602052806000526040600020600091509150508060000160009054906101000a900460ff16908060000160019054906101000a900460ff16908060000160029054906101000a900460ff16908060000160039054906101000a900460ff16908060000160049054906101000a900460ff16905085565b606060008060009054906101000a900460ff1660ff1667ffffffffffffffff811115611d46577f4e487b7100000000000000000000000000000000000000000000000000000000600052604160045260246000fd5b604051908082528060200260200182016040528015611d7f57816020015b611d6c612642565b815260200190600190039081611d645790505b50905060005b60008054906101000a900460ff1660ff168160ff161015611ef657600e8160ff16600a8110611ddd577f4e487b7100000000000000000000000000000000000000000000000000000000600052603260045260246000fd5b0160008060019054906101000a900473ffffffffffffffffffffffffffffffffffffffff1673ffffffffffffffffffffffffffffffffffffffff1673ffffffffffffffffffffffffffffffffffffffff1681526020019081526020016000206040518060600160405290816000820160009054906101000a900460ff1660ff1660ff1681526020016000820160019054906101000a900460ff1660ff1660ff1681526020016000820160029054906101000a900460ff161515151581525050828260ff1681518110611ed8577f4e487b7100000000000000000000000000000000000000000000000000000000600052603260045260246000fd5b60200260200101819052508080611eee906136d3565b915050611d85565b508091505090565b6003806003811115611f39577f4e487b7100000000000000000000000000000000000000000000000000000000600052602160045260246000fd5b600360159054906101000a900460ff166003811115611f81577f4e487b7100000000000000000000000000000000000000000000000000000000600052602160045260246000fd5b14611fc1576040517f08c379a0000000000000000000000000000000000000000000000000000000008152600401611fb8906131bf565b60405180910390fd5b600160003373ffffffffffffffffffffffffffffffffffffffff1673ffffffffffffffffffffffffffffffffffffffff16815260200190815260200160002054600260009054906101000a900473ffffffffffffffffffffffffffffffffffffffff1673ffffffffffffffffffffffffffffffffffffffff16634937a2586040518060a001604052808a81526020018960ff1681526020018860ff1681526020018760ff1681526020018660ff168152506040518263ffffffff1660e01b815260040161208e91906130bd565b60206040518083038186803b1580156120a657600080fd5b505afa1580156120ba573d6000803e3d6000fd5b505050506040513d601f19601f820116820180604052508101906120de91906129e8565b1461211e576040517f08c379a0000000000000000000000000000000000000000000000000000000008152600401612115906131df565b60405180910390fd5b3373ffffffffffffffffffffffffffffffffffffffff167f5e7fdf2512ab9b99d72e078bab23ce002274ef0f42e29746a2012e8e2bdf00208686868660405161216a94939291906132c3565b60405180910390a2600060018111156121ac577f4e487b7100000000000000000000000000000000000000000000000000000000600052602160045260246000fd5b600360149054906101000a900460ff1660018111156121f4577f4e487b7100000000000000000000000000000000000000000000000000000000600052602160045260246000fd5b1415612269576122026122c0565b6000600181111561223c577f4e487b7100000000000000000000000000000000000000000000000000000000600052602160045260246000fd5b7f8f90ac036816fb168152d6673fe0bd5779b0dfbecd74d08edd386abdf52f8f2b60405160405180910390a25b505050505050565b60008060019054906101000a900473ffffffffffffffffffffffffffffffffffffffff16905090565b600260009054906101000a900473ffffffffffffffffffffffffffffffffffffffff1681565b6000600360156101000a81548160ff0219169083600381111561230c577f4e487b7100000000000000000000000000000000000000000000000000000000600052602160045260246000fd5b021790555060016000806101000a81548160ff021916908360ff16021790555060005b600a60ff168160ff16101561252f5760048160ff16600a811061237b577f4e487b7100000000000000000000000000000000000000000000000000000000600052603260045260246000fd5b0160008060019054906101000a900473ffffffffffffffffffffffffffffffffffffffff1673ffffffffffffffffffffffffffffffffffffffff1673ffffffffffffffffffffffffffffffffffffffff168152602001908152602001600020600080820160006101000a81549060ff02191690556000820160016101000a81549060ff02191690556000820160026101000a81549060ff02191690556000820160036101000a81549060ff02191690556000820160046101000a81549060ff02191690555050600e8160ff16600a811061247e577f4e487b7100000000000000000000000000000000000000000000000000000000600052603260045260246000fd5b0160008060019054906101000a900473ffffffffffffffffffffffffffffffffffffffff1673ffffffffffffffffffffffffffffffffffffffff1673ffffffffffffffffffffffffffffffffffffffff168152602001908152602001600020600080820160006101000a81549060ff02191690556000820160016101000a81549060ff02191690556000820160026101000a81549060ff021916905550508080612527906136d3565b91505061232f565b506000600160008060019054906101000a900473ffffffffffffffffffffffffffffffffffffffff1673ffffffffffffffffffffffffffffffffffffffff1673ffffffffffffffffffffffffffffffffffffffff1681526020019081526020016000208190555060008060016101000a81548173ffffffffffffffffffffffffffffffffffffffff021916908373ffffffffffffffffffffffffffffffffffffffff1602179055507f80f860092ed8101278311dd6b10dda4920a40ea5dfcbacfe724e2accfaf63efc60405160405180910390a1565b6040518060a00160405280600060ff168152602001600060ff168152602001600060ff168152602001600060ff1681526020016000151581525090565b6040518060600160405280600060ff168152602001600060ff1681526020016000151581525090565b600061267e612679846133d3565b6133ae565b9050808285604086028201111561269457600080fd5b60005b858110156126c457816126aa888261280c565b845260208401935060408301925050600181019050612697565b5050509392505050565b60006126e16126dc846133f9565b6133ae565b905080828560208602820111156126f757600080fd5b60005b85811015612727578161270d888261288d565b8452602084019350602083019250506001810190506126fa565b5050509392505050565b600061274461273f8461341f565b6133ae565b9050808285602086028201111561275a57600080fd5b60005b8581101561278a5781612770888261288d565b84526020840193506020830192505060018101905061275d565b5050509392505050565b6000813590506127a3816138b9565b92915050565b6000819050826040600202820111156127c157600080fd5b92915050565b600082601f8301126127d857600080fd5b60026127e584828561266b565b91505092915050565b60008190508260206002028201111561280657600080fd5b92915050565b600082601f83011261281d57600080fd5b600261282a8482856126ce565b91505092915050565b60008190508260206008028201111561284b57600080fd5b92915050565b600082601f83011261286257600080fd5b600861286f848285612731565b91505092915050565b600081519050612887816138d0565b92915050565b60008135905061289c816138e7565b92915050565b6000815190506128b1816138e7565b92915050565b6000813590506128c6816138fe565b92915050565b60008060008061020085870312156128e357600080fd5b60006128f1878288016127ee565b9450506040612902878288016127a9565b93505060c0612913878288016127ee565b92505061010061292587828801612833565b91505092959194509250565b600080600080610200858703121561294857600080fd5b60006129568782880161280c565b9450506040612967878288016127c7565b93505060c06129788782880161280c565b92505061010061298a87828801612851565b91505092959194509250565b6000602082840312156129a857600080fd5b60006129b684828501612878565b91505092915050565b6000602082840312156129d157600080fd5b60006129df8482850161288d565b91505092915050565b6000602082840312156129fa57600080fd5b6000612a08848285016128a2565b91505092915050565b60008060408385031215612a2457600080fd5b6000612a328582860161288d565b9250506020612a4385828601612794565b9150509250929050565b600080600080600060a08688031215612a6557600080fd5b6000612a738882890161288d565b9550506020612a84888289016128b7565b9450506040612a95888289016128b7565b9350506060612aa6888289016128b7565b9250506080612ab7888289016128b7565b9150509295509295909350565b60008060008060808587031215612ada57600080fd5b6000612ae8878288016128b7565b9450506020612af9878288016128b7565b9350506040612b0a878288016128b7565b9250506060612b1b878288016128b7565b91505092959194509250565b6000612b338383612ca9565b60408301905092915050565b6000612b4b8383612f31565b60608301905092915050565b6000612b638383612f73565b60a08301905092915050565b6000612b7b8383612fdb565b60208301905092915050565b612b90816135bb565b82525050565b612b9f8161348d565b612ba9818461351d565b9250612bb482613445565b8060005b83811015612be5578151612bcc8782612b27565b9650612bd7836134cf565b925050600181019050612bb8565b505050505050565b6000612bf882613498565b612c028185613528565b9350612c0d8361344f565b8060005b83811015612c3e578151612c258882612b3f565b9750612c30836134dc565b925050600181019050612c11565b5085935050505092915050565b6000612c56826134a3565b612c608185613539565b9350612c6b8361345f565b8060005b83811015612c9c578151612c838882612b57565b9750612c8e836134e9565b925050600181019050612c6f565b5085935050505092915050565b612cb2816134ae565b612cbc818461354a565b9250612cc78261346f565b8060005b83811015612cf8578151612cdf8782612b6f565b9650612cea836134f6565b925050600181019050612ccb565b505050505050565b612d09816134ae565b612d138184613555565b9250612d1e8261346f565b8060005b83811015612d4f578151612d368782612b6f565b9650612d41836134f6565b925050600181019050612d22565b505050505050565b612d60816134b9565b612d6a8184613560565b9250612d7582613479565b8060005b83811015612da6578151612d8d8782612b6f565b9650612d9883613503565b925050600181019050612d79565b505050505050565b612db7816134c4565b612dc1818461356b565b9250612dcc82613483565b8060005b83811015612dfd578151612de48782612b6f565b9650612def83613510565b925050600181019050612dd0565b505050505050565b612e0e816135cd565b82525050565b612e1d816135cd565b82525050565b612e2c81613636565b82525050565b612e3b8161365a565b82525050565b612e4a8161367e565b82525050565b612e5981613690565b82525050565b6000612e6c601283613576565b9150612e778261379b565b602082019050919050565b6000612e8f600b83613576565b9150612e9a826137c4565b602082019050919050565b6000612eb2601283613576565b9150612ebd826137ed565b602082019050919050565b6000612ed5600d83613576565b9150612ee082613816565b602082019050919050565b6000612ef8600c83613576565b9150612f038261383f565b602082019050919050565b6000612f1b601283613576565b9150612f2682613868565b602082019050919050565b606082016000820151612f476000850182612ff9565b506020820151612f5a6020850182612ff9565b506040820151612f6d6040850182612e05565b50505050565b60a082016000820151612f896000850182612ff9565b506020820151612f9c6020850182612ff9565b506040820151612faf6040850182612ff9565b506060820151612fc26060850182612ff9565b506080820151612fd56080850182612e05565b50505050565b612fe48161361f565b82525050565b612ff38161361f565b82525050565b61300281613629565b82525050565b61301181613629565b82525050565b600060208201905061302c6000830184612b87565b92915050565b6000602082019050818103600083015261304c8184612bed565b905092915050565b6000602082019050818103600083015261306e8184612c4b565b905092915050565b60006102008201905061308c6000830187612d00565b6130996040830186612b96565b6130a660c0830185612d00565b6130b4610100830184612dae565b95945050505050565b600060a0820190506130d26000830184612d57565b92915050565b60006020820190506130ed6000830184612e14565b92915050565b60006020820190506131086000830184612e23565b92915050565b60006020820190506131236000830184612e32565b92915050565b600060208201905061313e6000830184612e41565b92915050565b60006020820190506131596000830184612e50565b92915050565b6000602082019050818103600083015261317881612e5f565b9050919050565b6000602082019050818103600083015261319881612e82565b9050919050565b600060208201905081810360008301526131b881612ea5565b9050919050565b600060208201905081810360008301526131d881612ec8565b9050919050565b600060208201905081810360008301526131f881612eeb565b9050919050565b6000602082019050818103600083015261321881612f0e565b9050919050565b60006020820190506132346000830184612fea565b92915050565b600060208201905061324f6000830184613008565b92915050565b600060608201905061326a6000830186613008565b6132776020830185613008565b6132846040830184612e14565b949350505050565b60006060820190506132a16000830186613008565b6132ae6020830185613008565b6132bb6040830184613008565b949350505050565b60006080820190506132d86000830187613008565b6132e56020830186613008565b6132f26040830185613008565b6132ff6060830184613008565b95945050505050565b600060a08201905061331d6000830188613008565b61332a6020830187613008565b6133376040830186613008565b6133446060830185613008565b6133516080830184612e14565b9695505050505050565b600060a0820190506133706000830188613008565b61337d6020830187613008565b61338a6040830186613008565b6133976060830185613008565b6133a46080830184613008565b9695505050505050565b60006133b86133c9565b90506133c482826136a2565b919050565b6000604051905090565b600067ffffffffffffffff8211156133ee576133ed61375b565b5b602082029050919050565b600067ffffffffffffffff8211156134145761341361375b565b5b602082029050919050565b600067ffffffffffffffff82111561343a5761343961375b565b5b602082029050919050565b6000819050919050565b6000819050602082019050919050565b6000819050602082019050919050565b6000819050919050565b6000819050919050565b6000819050919050565b600060029050919050565b600081519050919050565b600081519050919050565b600060029050919050565b600060059050919050565b600060089050919050565b6000602082019050919050565b6000602082019050919050565b6000602082019050919050565b6000602082019050919050565b6000602082019050919050565b6000602082019050919050565b600081905092915050565b600082825260208201905092915050565b600082825260208201905092915050565b600081905092915050565b600081905092915050565b600081905092915050565b600081905092915050565b600082825260208201905092915050565b600061359282613629565b915061359d83613629565b9250828210156135b0576135af6136fd565b5b828203905092915050565b60006135c6826135ff565b9050919050565b60008115159050919050565b60008190506135e782613891565b919050565b60008190506135fa826138a5565b919050565b600073ffffffffffffffffffffffffffffffffffffffff82169050919050565b6000819050919050565b600060ff82169050919050565b600061364182613648565b9050919050565b6000613653826135ff565b9050919050565b60006136658261366c565b9050919050565b6000613677826135ff565b9050919050565b6000613689826135d9565b9050919050565b600061369b826135ec565b9050919050565b6136ab8261378a565b810181811067ffffffffffffffff821117156136ca576136c961375b565b5b80604052505050565b60006136de82613629565b915060ff8214156136f2576136f16136fd565b5b600182019050919050565b7f4e487b7100000000000000000000000000000000000000000000000000000000600052601160045260246000fd5b7f4e487b7100000000000000000000000000000000000000000000000000000000600052602160045260246000fd5b7f4e487b7100000000000000000000000000000000000000000000000000000000600052604160045260246000fd5b6000601f19601f8301169050919050565b7f616c7265616479207375626d6974746564210000000000000000000000000000600082015250565b7f6e6f7420616c6c6f776564000000000000000000000000000000000000000000600082015250565b7f616c726561647920726567697374657264210000000000000000000000000000600082015250565b7f6e6f7420616c6c6f776564212000000000000000000000000000000000000000600082015250565b7f696e76616c696420686173680000000000000000000000000000000000000000600082015250565b7f766572696669636174696f6e206572726f720000000000000000000000000000600082015250565b600281106138a2576138a161372c565b5b50565b600481106138b6576138b561372c565b5b50565b6138c2816135bb565b81146138cd57600080fd5b50565b6138d9816135cd565b81146138e457600080fd5b50565b6138f08161361f565b81146138fb57600080fd5b50565b61390781613629565b811461391257600080fd5b5056fea26469706673582212203d5b8b0ecc6c500858084cabf50209af5b101750b11756c9e206a600a57acc5764736f6c63430008040033",
  "linkReferences": {},
  "deployedLinkReferences": {}
}